{
  "_format": "hh-sol-artifact-1",
  "contractName": "Castle",
  "sourceName": "src/backend/contracts/Castle.sol",
  "abi": [
    {
      "inputs": [
        {
          "internalType": "address",
          "name": "_plantingAddress",
          "type": "address"
        },
        {
          "internalType": "address",
          "name": "_nftAddress",
          "type": "address"
        }
      ],
      "stateMutability": "nonpayable",
      "type": "constructor"
    },
    {
      "anonymous": false,
      "inputs": [
        {
          "indexed": false,
          "internalType": "address",
          "name": "user",
          "type": "address"
        },
        {
          "indexed": false,
          "internalType": "uint256",
          "name": "choice",
          "type": "uint256"
        }
      ],
      "name": "LootingSuccessful",
      "type": "event"
    },
    {
      "anonymous": false,
      "inputs": [
        {
          "indexed": true,
          "internalType": "address",
          "name": "previousOwner",
          "type": "address"
        },
        {
          "indexed": true,
          "internalType": "address",
          "name": "newOwner",
          "type": "address"
        }
      ],
      "name": "OwnershipTransferred",
      "type": "event"
    },
    {
      "inputs": [
        {
          "internalType": "uint256",
          "name": "_choice",
          "type": "uint256"
        }
      ],
      "name": "loot",
      "outputs": [],
      "stateMutability": "nonpayable",
      "type": "function"
    },
    {
      "inputs": [],
      "name": "owner",
      "outputs": [
        {
          "internalType": "address",
          "name": "",
          "type": "address"
        }
      ],
      "stateMutability": "view",
      "type": "function"
    },
    {
      "inputs": [],
      "name": "renounceOwnership",
      "outputs": [],
      "stateMutability": "nonpayable",
      "type": "function"
    },
    {
      "inputs": [
        {
          "internalType": "address",
          "name": "_tokenAddress",
          "type": "address"
        }
      ],
      "name": "setTokenAddress",
      "outputs": [],
      "stateMutability": "nonpayable",
      "type": "function"
    },
    {
      "inputs": [
        {
          "internalType": "address",
          "name": "newOwner",
          "type": "address"
        }
      ],
      "name": "transferOwnership",
      "outputs": [],
      "stateMutability": "nonpayable",
      "type": "function"
    }
  ],
  "bytecode": "0x60806040523480156200001157600080fd5b50604051620010e6380380620010e683398181016040528101906200003791906200021e565b620000576200004b620000e860201b60201c565b620000f060201b60201c565b6001808190555081600460006101000a81548173ffffffffffffffffffffffffffffffffffffffff021916908373ffffffffffffffffffffffffffffffffffffffff16021790555080600360006101000a81548173ffffffffffffffffffffffffffffffffffffffff021916908373ffffffffffffffffffffffffffffffffffffffff160217905550505062000265565b600033905090565b60008060009054906101000a900473ffffffffffffffffffffffffffffffffffffffff169050816000806101000a81548173ffffffffffffffffffffffffffffffffffffffff021916908373ffffffffffffffffffffffffffffffffffffffff1602179055508173ffffffffffffffffffffffffffffffffffffffff168173ffffffffffffffffffffffffffffffffffffffff167f8be0079c531659141344cd1fd0a4f28419497f9722a3daafe3b4186f6b6457e060405160405180910390a35050565b600080fd5b600073ffffffffffffffffffffffffffffffffffffffff82169050919050565b6000620001e682620001b9565b9050919050565b620001f881620001d9565b81146200020457600080fd5b50565b6000815190506200021881620001ed565b92915050565b60008060408385031215620002385762000237620001b4565b5b6000620002488582860162000207565b92505060206200025b8582860162000207565b9150509250929050565b610e7180620002756000396000f3fe608060405234801561001057600080fd5b50600436106100575760003560e01c806326a4e8d21461005c5780635739ad5514610078578063715018a6146100945780638da5cb5b1461009e578063f2fde38b146100bc575b600080fd5b61007660048036038101906100719190610822565b6100d8565b005b610092600480360381019061008d9190610885565b610124565b005b61009c610553565b005b6100a6610567565b6040516100b391906108c1565b60405180910390f35b6100d660048036038101906100d19190610822565b610590565b005b6100e0610613565b80600260006101000a81548173ffffffffffffffffffffffffffffffffffffffff021916908373ffffffffffffffffffffffffffffffffffffffff16021790555050565b61012c610691565b60001515600560003373ffffffffffffffffffffffffffffffffffffffff1673ffffffffffffffffffffffffffffffffffffffff16815260200190815260200160002060009054906101000a900460ff161515146101bf576040517f08c379a00000000000000000000000000000000000000000000000000000000081526004016101b69061095f565b60405180910390fd5b60048060009054906101000a900473ffffffffffffffffffffffffffffffffffffffff1673ffffffffffffffffffffffffffffffffffffffff16634e2f90e9336040518263ffffffff1660e01b815260040161021b91906108c1565b6040805180830381865afa158015610237573d6000803e3d6000fd5b505050506040513d601f19601f8201168201806040525081019061025b9190610a75565b600001511461029f576040517f08c379a000000000000000000000000000000000000000000000000000000000815260040161029690610b14565b60405180910390fd5b600460009054906101000a900473ffffffffffffffffffffffffffffffffffffffff1673ffffffffffffffffffffffffffffffffffffffff16631356d3dc336040518263ffffffff1660e01b81526004016102fa91906108c1565b602060405180830381865afa158015610317573d6000803e3d6000fd5b505050506040513d601f19601f8201168201806040525081019061033b9190610b6c565b61037a576040517f08c379a000000000000000000000000000000000000000000000000000000000815260040161037190610c0b565b60405180910390fd5b6001600560003373ffffffffffffffffffffffffffffffffffffffff1673ffffffffffffffffffffffffffffffffffffffff16815260200190815260200160002060006101000a81548160ff0219169083151502179055506000810361048157600260009054906101000a900473ffffffffffffffffffffffffffffffffffffffff1673ffffffffffffffffffffffffffffffffffffffff1663a9059cbb3360016040518363ffffffff1660e01b8152600401610438929190610c70565b6020604051808303816000875af1158015610457573d6000803e3d6000fd5b505050506040513d601f19601f8201168201806040525081019061047b9190610b6c565b5061050f565b600360009054906101000a900473ffffffffffffffffffffffffffffffffffffffff1673ffffffffffffffffffffffffffffffffffffffff166363250887336040518263ffffffff1660e01b81526004016104dc91906108c1565b600060405180830381600087803b1580156104f657600080fd5b505af115801561050a573d6000803e3d6000fd5b505050505b7fce2297c1061f1c092e79e76103b5ddf083853314ac79632c71d56bed3422c7ee3382604051610540929190610ca8565b60405180910390a16105506106e0565b50565b61055b610613565b61056560006106e9565b565b60008060009054906101000a900473ffffffffffffffffffffffffffffffffffffffff16905090565b610598610613565b600073ffffffffffffffffffffffffffffffffffffffff168173ffffffffffffffffffffffffffffffffffffffff1603610607576040517f08c379a00000000000000000000000000000000000000000000000000000000081526004016105fe90610d43565b60405180910390fd5b610610816106e9565b50565b61061b6107ad565b73ffffffffffffffffffffffffffffffffffffffff16610639610567565b73ffffffffffffffffffffffffffffffffffffffff161461068f576040517f08c379a000000000000000000000000000000000000000000000000000000000815260040161068690610daf565b60405180910390fd5b565b6002600154036106d6576040517f08c379a00000000000000000000000000000000000000000000000000000000081526004016106cd90610e1b565b60405180910390fd5b6002600181905550565b60018081905550565b60008060009054906101000a900473ffffffffffffffffffffffffffffffffffffffff169050816000806101000a81548173ffffffffffffffffffffffffffffffffffffffff021916908373ffffffffffffffffffffffffffffffffffffffff1602179055508173ffffffffffffffffffffffffffffffffffffffff168173ffffffffffffffffffffffffffffffffffffffff167f8be0079c531659141344cd1fd0a4f28419497f9722a3daafe3b4186f6b6457e060405160405180910390a35050565b600033905090565b6000604051905090565b600080fd5b600073ffffffffffffffffffffffffffffffffffffffff82169050919050565b60006107ef826107c4565b9050919050565b6107ff816107e4565b811461080a57600080fd5b50565b60008135905061081c816107f6565b92915050565b600060208284031215610838576108376107bf565b5b60006108468482850161080d565b91505092915050565b6000819050919050565b6108628161084f565b811461086d57600080fd5b50565b60008135905061087f81610859565b92915050565b60006020828403121561089b5761089a6107bf565b5b60006108a984828501610870565b91505092915050565b6108bb816107e4565b82525050565b60006020820190506108d660008301846108b2565b92915050565b600082825260208201905092915050565b7f54686973207573657220616c7265616479206c6f6f746564207468652063617360008201527f746c652e00000000000000000000000000000000000000000000000000000000602082015250565b60006109496024836108dc565b9150610954826108ed565b604082019050919050565b600060208201905081810360008301526109788161093c565b9050919050565b600080fd5b6000601f19601f8301169050919050565b7f4e487b7100000000000000000000000000000000000000000000000000000000600052604160045260246000fd5b6109cd82610984565b810181811067ffffffffffffffff821117156109ec576109eb610995565b5b80604052505050565b60006109ff6107b5565b9050610a0b82826109c4565b919050565b600081519050610a1f81610859565b92915050565b600060408284031215610a3b57610a3a61097f565b5b610a4560406109f5565b90506000610a5584828501610a10565b6000830152506020610a6984828501610a10565b60208301525092915050565b600060408284031215610a8b57610a8a6107bf565b5b6000610a9984828501610a25565b91505092915050565b7f5468652075736572206973206e6f7420617420746865206c61737420706c616e60008201527f74696e672070686173652e000000000000000000000000000000000000000000602082015250565b6000610afe602b836108dc565b9150610b0982610aa2565b604082019050919050565b60006020820190508181036000830152610b2d81610af1565b9050919050565b60008115159050919050565b610b4981610b34565b8114610b5457600080fd5b50565b600081519050610b6681610b40565b92915050565b600060208284031215610b8257610b816107bf565b5b6000610b9084828501610b57565b91505092915050565b7f546865207573657220686173206e6f742066696e69736865642069747320706c60008201527f616e74696e672070686173650000000000000000000000000000000000000000602082015250565b6000610bf5602c836108dc565b9150610c0082610b99565b604082019050919050565b60006020820190508181036000830152610c2481610be8565b9050919050565b6000819050919050565b6000819050919050565b6000610c5a610c55610c5084610c2b565b610c35565b61084f565b9050919050565b610c6a81610c3f565b82525050565b6000604082019050610c8560008301856108b2565b610c926020830184610c61565b9392505050565b610ca28161084f565b82525050565b6000604082019050610cbd60008301856108b2565b610cca6020830184610c99565b9392505050565b7f4f776e61626c653a206e6577206f776e657220697320746865207a65726f206160008201527f6464726573730000000000000000000000000000000000000000000000000000602082015250565b6000610d2d6026836108dc565b9150610d3882610cd1565b604082019050919050565b60006020820190508181036000830152610d5c81610d20565b9050919050565b7f4f776e61626c653a2063616c6c6572206973206e6f7420746865206f776e6572600082015250565b6000610d996020836108dc565b9150610da482610d63565b602082019050919050565b60006020820190508181036000830152610dc881610d8c565b9050919050565b7f5265656e7472616e637947756172643a207265656e7472616e742063616c6c00600082015250565b6000610e05601f836108dc565b9150610e1082610dcf565b602082019050919050565b60006020820190508181036000830152610e3481610df8565b905091905056fea26469706673582212208eaaf0cb200a73b92d644fb82bf1783327a55fd71b358da4b4eab37f41ab424f64736f6c634300080d0033",
  "linkReferences": {},
  "deployedLinkReferences": {}
}