{
  "_format": "hh-sol-artifact-1",
  "contractName": "NFT",
  "sourceName": "src/backend/contracts/NFT.sol",
  "abi": [
    {
      "inputs": [],
      "stateMutability": "nonpayable",
      "type": "constructor"
    },
    {
      "inputs": [],
      "name": "ApprovalCallerNotOwnerNorApproved",
      "type": "error"
    },
    {
      "inputs": [],
      "name": "ApprovalQueryForNonexistentToken",
      "type": "error"
    },
    {
      "inputs": [],
      "name": "ApproveToCaller",
      "type": "error"
    },
    {
      "inputs": [],
      "name": "BalanceQueryForZeroAddress",
      "type": "error"
    },
    {
      "inputs": [],
      "name": "MintERC2309QuantityExceedsLimit",
      "type": "error"
    },
    {
      "inputs": [],
      "name": "MintToZeroAddress",
      "type": "error"
    },
    {
      "inputs": [],
      "name": "MintZeroQuantity",
      "type": "error"
    },
    {
      "inputs": [
        {
          "internalType": "address",
          "name": "operator",
          "type": "address"
        }
      ],
      "name": "OperatorNotAllowed",
      "type": "error"
    },
    {
      "inputs": [],
      "name": "OwnerQueryForNonexistentToken",
      "type": "error"
    },
    {
      "inputs": [],
      "name": "OwnershipNotInitializedForExtraData",
      "type": "error"
    },
    {
      "inputs": [],
      "name": "TransferCallerNotOwnerNorApproved",
      "type": "error"
    },
    {
      "inputs": [],
      "name": "TransferFromIncorrectOwner",
      "type": "error"
    },
    {
      "inputs": [],
      "name": "TransferToNonERC721ReceiverImplementer",
      "type": "error"
    },
    {
      "inputs": [],
      "name": "TransferToZeroAddress",
      "type": "error"
    },
    {
      "inputs": [],
      "name": "URIQueryForNonexistentToken",
      "type": "error"
    },
    {
      "anonymous": false,
      "inputs": [
        {
          "indexed": true,
          "internalType": "address",
          "name": "owner",
          "type": "address"
        },
        {
          "indexed": true,
          "internalType": "address",
          "name": "approved",
          "type": "address"
        },
        {
          "indexed": true,
          "internalType": "uint256",
          "name": "tokenId",
          "type": "uint256"
        }
      ],
      "name": "Approval",
      "type": "event"
    },
    {
      "anonymous": false,
      "inputs": [
        {
          "indexed": true,
          "internalType": "address",
          "name": "owner",
          "type": "address"
        },
        {
          "indexed": true,
          "internalType": "address",
          "name": "operator",
          "type": "address"
        },
        {
          "indexed": false,
          "internalType": "bool",
          "name": "approved",
          "type": "bool"
        }
      ],
      "name": "ApprovalForAll",
      "type": "event"
    },
    {
      "anonymous": false,
      "inputs": [
        {
          "indexed": true,
          "internalType": "uint256",
          "name": "fromTokenId",
          "type": "uint256"
        },
        {
          "indexed": false,
          "internalType": "uint256",
          "name": "toTokenId",
          "type": "uint256"
        },
        {
          "indexed": true,
          "internalType": "address",
          "name": "from",
          "type": "address"
        },
        {
          "indexed": true,
          "internalType": "address",
          "name": "to",
          "type": "address"
        }
      ],
      "name": "ConsecutiveTransfer",
      "type": "event"
    },
    {
      "anonymous": false,
      "inputs": [
        {
          "indexed": false,
          "internalType": "address",
          "name": "user",
          "type": "address"
        }
      ],
      "name": "MintSuccessful",
      "type": "event"
    },
    {
      "anonymous": false,
      "inputs": [
        {
          "indexed": true,
          "internalType": "address",
          "name": "previousOwner",
          "type": "address"
        },
        {
          "indexed": true,
          "internalType": "address",
          "name": "newOwner",
          "type": "address"
        }
      ],
      "name": "OwnershipTransferred",
      "type": "event"
    },
    {
      "anonymous": false,
      "inputs": [
        {
          "indexed": true,
          "internalType": "address",
          "name": "from",
          "type": "address"
        },
        {
          "indexed": true,
          "internalType": "address",
          "name": "to",
          "type": "address"
        },
        {
          "indexed": true,
          "internalType": "uint256",
          "name": "tokenId",
          "type": "uint256"
        }
      ],
      "name": "Transfer",
      "type": "event"
    },
    {
      "inputs": [],
      "name": "amountMintPerAccount",
      "outputs": [
        {
          "internalType": "uint256",
          "name": "",
          "type": "uint256"
        }
      ],
      "stateMutability": "view",
      "type": "function"
    },
    {
      "inputs": [
        {
          "internalType": "address",
          "name": "to",
          "type": "address"
        },
        {
          "internalType": "uint256",
          "name": "tokenId",
          "type": "uint256"
        }
      ],
      "name": "approve",
      "outputs": [],
      "stateMutability": "nonpayable",
      "type": "function"
    },
    {
      "inputs": [
        {
          "internalType": "address",
          "name": "owner",
          "type": "address"
        }
      ],
      "name": "balanceOf",
      "outputs": [
        {
          "internalType": "uint256",
          "name": "",
          "type": "uint256"
        }
      ],
      "stateMutability": "view",
      "type": "function"
    },
    {
      "inputs": [],
      "name": "baseTokenURI",
      "outputs": [
        {
          "internalType": "string",
          "name": "",
          "type": "string"
        }
      ],
      "stateMutability": "pure",
      "type": "function"
    },
    {
      "inputs": [
        {
          "internalType": "uint256",
          "name": "_tokenId",
          "type": "uint256"
        }
      ],
      "name": "burn",
      "outputs": [],
      "stateMutability": "nonpayable",
      "type": "function"
    },
    {
      "inputs": [],
      "name": "contractURI",
      "outputs": [
        {
          "internalType": "string",
          "name": "",
          "type": "string"
        }
      ],
      "stateMutability": "pure",
      "type": "function"
    },
    {
      "inputs": [
        {
          "internalType": "uint256",
          "name": "tokenId",
          "type": "uint256"
        }
      ],
      "name": "getApproved",
      "outputs": [
        {
          "internalType": "address",
          "name": "",
          "type": "address"
        }
      ],
      "stateMutability": "view",
      "type": "function"
    },
    {
      "inputs": [],
      "name": "getPrice",
      "outputs": [
        {
          "internalType": "uint256",
          "name": "",
          "type": "uint256"
        }
      ],
      "stateMutability": "view",
      "type": "function"
    },
    {
      "inputs": [
        {
          "internalType": "address",
          "name": "owner",
          "type": "address"
        },
        {
          "internalType": "address",
          "name": "operator",
          "type": "address"
        }
      ],
      "name": "isApprovedForAll",
      "outputs": [
        {
          "internalType": "bool",
          "name": "",
          "type": "bool"
        }
      ],
      "stateMutability": "view",
      "type": "function"
    },
    {
      "inputs": [],
      "name": "max_supply",
      "outputs": [
        {
          "internalType": "uint256",
          "name": "",
          "type": "uint256"
        }
      ],
      "stateMutability": "view",
      "type": "function"
    },
    {
      "inputs": [
        {
          "internalType": "uint256",
          "name": "quantity",
          "type": "uint256"
        }
      ],
      "name": "mint",
      "outputs": [],
      "stateMutability": "payable",
      "type": "function"
    },
    {
      "inputs": [],
      "name": "mintEnabled",
      "outputs": [
        {
          "internalType": "bool",
          "name": "",
          "type": "bool"
        }
      ],
      "stateMutability": "view",
      "type": "function"
    },
    {
      "inputs": [],
      "name": "name",
      "outputs": [
        {
          "internalType": "string",
          "name": "",
          "type": "string"
        }
      ],
      "stateMutability": "view",
      "type": "function"
    },
    {
      "inputs": [],
      "name": "owner",
      "outputs": [
        {
          "internalType": "address",
          "name": "",
          "type": "address"
        }
      ],
      "stateMutability": "view",
      "type": "function"
    },
    {
      "inputs": [
        {
          "internalType": "uint256",
          "name": "tokenId",
          "type": "uint256"
        }
      ],
      "name": "ownerOf",
      "outputs": [
        {
          "internalType": "address",
          "name": "",
          "type": "address"
        }
      ],
      "stateMutability": "view",
      "type": "function"
    },
    {
      "inputs": [],
      "name": "price",
      "outputs": [
        {
          "internalType": "uint256",
          "name": "",
          "type": "uint256"
        }
      ],
      "stateMutability": "view",
      "type": "function"
    },
    {
      "inputs": [],
      "name": "renounceOwnership",
      "outputs": [],
      "stateMutability": "nonpayable",
      "type": "function"
    },
    {
      "inputs": [
        {
          "internalType": "address",
          "name": "from",
          "type": "address"
        },
        {
          "internalType": "address",
          "name": "to",
          "type": "address"
        },
        {
          "internalType": "uint256",
          "name": "tokenId",
          "type": "uint256"
        }
      ],
      "name": "safeTransferFrom",
      "outputs": [],
      "stateMutability": "nonpayable",
      "type": "function"
    },
    {
      "inputs": [
        {
          "internalType": "address",
          "name": "from",
          "type": "address"
        },
        {
          "internalType": "address",
          "name": "to",
          "type": "address"
        },
        {
          "internalType": "uint256",
          "name": "tokenId",
          "type": "uint256"
        },
        {
          "internalType": "bytes",
          "name": "data",
          "type": "bytes"
        }
      ],
      "name": "safeTransferFrom",
      "outputs": [],
      "stateMutability": "nonpayable",
      "type": "function"
    },
    {
      "inputs": [
        {
          "internalType": "uint256",
          "name": "_amountMintPerAccount",
          "type": "uint256"
        }
      ],
      "name": "setAmountMintPerAccount",
      "outputs": [],
      "stateMutability": "nonpayable",
      "type": "function"
    },
    {
      "inputs": [
        {
          "internalType": "address",
          "name": "operator",
          "type": "address"
        },
        {
          "internalType": "bool",
          "name": "approved",
          "type": "bool"
        }
      ],
      "name": "setApprovalForAll",
      "outputs": [],
      "stateMutability": "nonpayable",
      "type": "function"
    },
    {
      "inputs": [
        {
          "internalType": "bool",
          "name": "_state",
          "type": "bool"
        }
      ],
      "name": "setMintEnabled",
      "outputs": [],
      "stateMutability": "nonpayable",
      "type": "function"
    },
    {
      "inputs": [
        {
          "internalType": "address",
          "name": "_address",
          "type": "address"
        }
      ],
      "name": "setPlantingAddress",
      "outputs": [],
      "stateMutability": "nonpayable",
      "type": "function"
    },
    {
      "inputs": [
        {
          "internalType": "uint256",
          "name": "_price",
          "type": "uint256"
        }
      ],
      "name": "setPrice",
      "outputs": [],
      "stateMutability": "nonpayable",
      "type": "function"
    },
    {
      "inputs": [
        {
          "internalType": "bytes4",
          "name": "interfaceId",
          "type": "bytes4"
        }
      ],
      "name": "supportsInterface",
      "outputs": [
        {
          "internalType": "bool",
          "name": "",
          "type": "bool"
        }
      ],
      "stateMutability": "view",
      "type": "function"
    },
    {
      "inputs": [],
      "name": "symbol",
      "outputs": [
        {
          "internalType": "string",
          "name": "",
          "type": "string"
        }
      ],
      "stateMutability": "view",
      "type": "function"
    },
    {
      "inputs": [
        {
          "internalType": "uint256",
          "name": "_tokenId",
          "type": "uint256"
        }
      ],
      "name": "tokenURI",
      "outputs": [
        {
          "internalType": "string",
          "name": "",
          "type": "string"
        }
      ],
      "stateMutability": "view",
      "type": "function"
    },
    {
      "inputs": [],
      "name": "totalSupply",
      "outputs": [
        {
          "internalType": "uint256",
          "name": "",
          "type": "uint256"
        }
      ],
      "stateMutability": "view",
      "type": "function"
    },
    {
      "inputs": [
        {
          "internalType": "address",
          "name": "from",
          "type": "address"
        },
        {
          "internalType": "address",
          "name": "to",
          "type": "address"
        },
        {
          "internalType": "uint256",
          "name": "tokenId",
          "type": "uint256"
        }
      ],
      "name": "transferFrom",
      "outputs": [],
      "stateMutability": "nonpayable",
      "type": "function"
    },
    {
      "inputs": [
        {
          "internalType": "address",
          "name": "newOwner",
          "type": "address"
        }
      ],
      "name": "transferOwnership",
      "outputs": [],
      "stateMutability": "nonpayable",
      "type": "function"
    },
    {
      "inputs": [],
      "name": "uriPrefix",
      "outputs": [
        {
          "internalType": "string",
          "name": "",
          "type": "string"
        }
      ],
      "stateMutability": "view",
      "type": "function"
    },
    {
      "inputs": [],
      "name": "uriSuffix",
      "outputs": [
        {
          "internalType": "string",
          "name": "",
          "type": "string"
        }
      ],
      "stateMutability": "view",
      "type": "function"
    },
    {
      "inputs": [],
      "name": "withdraw",
      "outputs": [],
      "stateMutability": "nonpayable",
      "type": "function"
    }
  ],
  "bytecode": "0x608060405260405180602001604052806000815250600990805190602001906200002b9291906200045e565b506040518060400160405280600581526020017f2e6a736f6e000000000000000000000000000000000000000000000000000000815250600a9080519060200190620000799291906200045e565b50611388600b556002600d5567011c37937e080000600f553480156200009e57600080fd5b50733cc6cdda760b79bafa08df41ecfa224f810dceb660016040518060400160405280600b81526020017f4265616e7374616c6b65720000000000000000000000000000000000000000008152506040518060400160405280600481526020017f4245414e0000000000000000000000000000000000000000000000000000000081525062000142620001366200038960201b60201c565b6200039160201b60201c565b81600390805190602001906200015a9291906200045e565b508060049080519060200190620001739291906200045e565b50620001846200045560201b60201c565b600181905550505060006daaeb6d7670e522a718067333cd4e73ffffffffffffffffffffffffffffffffffffffff163b11156200038157801562000247576daaeb6d7670e522a718067333cd4e73ffffffffffffffffffffffffffffffffffffffff16637d3e3dbe30846040518363ffffffff1660e01b81526004016200020d92919062000553565b600060405180830381600087803b1580156200022857600080fd5b505af11580156200023d573d6000803e3d6000fd5b5050505062000380565b600073ffffffffffffffffffffffffffffffffffffffff168273ffffffffffffffffffffffffffffffffffffffff161462000301576daaeb6d7670e522a718067333cd4e73ffffffffffffffffffffffffffffffffffffffff1663a0af290330846040518363ffffffff1660e01b8152600401620002c792919062000553565b600060405180830381600087803b158015620002e257600080fd5b505af1158015620002f7573d6000803e3d6000fd5b505050506200037f565b6daaeb6d7670e522a718067333cd4e73ffffffffffffffffffffffffffffffffffffffff16634420e486306040518263ffffffff1660e01b81526004016200034a919062000580565b600060405180830381600087803b1580156200036557600080fd5b505af11580156200037a573d6000803e3d6000fd5b505050505b5b5b505062000601565b600033905090565b60008060009054906101000a900473ffffffffffffffffffffffffffffffffffffffff169050816000806101000a81548173ffffffffffffffffffffffffffffffffffffffff021916908373ffffffffffffffffffffffffffffffffffffffff1602179055508173ffffffffffffffffffffffffffffffffffffffff168173ffffffffffffffffffffffffffffffffffffffff167f8be0079c531659141344cd1fd0a4f28419497f9722a3daafe3b4186f6b6457e060405160405180910390a35050565b60006001905090565b8280546200046c90620005cc565b90600052602060002090601f016020900481019282620004905760008555620004dc565b82601f10620004ab57805160ff1916838001178555620004dc565b82800160010185558215620004dc579182015b82811115620004db578251825591602001919060010190620004be565b5b509050620004eb9190620004ef565b5090565b5b808211156200050a576000816000905550600101620004f0565b5090565b600073ffffffffffffffffffffffffffffffffffffffff82169050919050565b60006200053b826200050e565b9050919050565b6200054d816200052e565b82525050565b60006040820190506200056a600083018562000542565b62000579602083018462000542565b9392505050565b600060208201905062000597600083018462000542565b92915050565b7f4e487b7100000000000000000000000000000000000000000000000000000000600052602260045260246000fd5b60006002820490506001821680620005e557607f821691505b602082108103620005fb57620005fa6200059d565b5b50919050565b6136df80620006116000396000f3fe6080604052600436106101ee5760003560e01c80638a333b501161010d578063a827b5ff116100a0578063d547cfb71161006f578063d547cfb7146106b8578063e8a3d485146106e3578063e985e9c51461070e578063f2fde38b1461074b578063f46a04eb14610774576101ee565b8063a827b5ff146105fc578063b88d4fde14610627578063c87b56dd14610650578063d12397301461068d576101ee565b806398d5fdca116100dc57806398d5fdca14610561578063a035b1fe1461058c578063a0712d68146105b7578063a22cb465146105d3576101ee565b80638a333b50146104b75780638da5cb5b146104e257806391b7f5ed1461050d57806395d89b4114610536576101ee565b806342842e0e1161018557806362b99ad41161015457806362b99ad4146103fb5780636352211e1461042657806370a0823114610463578063715018a6146104a0576101ee565b806342842e0e1461035557806342966c681461037e5780635503a0e8146103a757806358cf25ca146103d2576101ee565b806311296660116101c157806311296660146102c157806318160ddd146102ea57806323b872dd146103155780633ccfd60b1461033e576101ee565b806301ffc9a7146101f357806306fdde0314610230578063081812fc1461025b578063095ea7b314610298575b600080fd5b3480156101ff57600080fd5b5061021a600480360381019061021591906128de565b61079d565b6040516102279190612926565b60405180910390f35b34801561023c57600080fd5b5061024561082f565b60405161025291906129da565b60405180910390f35b34801561026757600080fd5b50610282600480360381019061027d9190612a32565b6108c1565b60405161028f9190612aa0565b60405180910390f35b3480156102a457600080fd5b506102bf60048036038101906102ba9190612ae7565b610940565b005b3480156102cd57600080fd5b506102e860048036038101906102e39190612a32565b610a84565b005b3480156102f657600080fd5b506102ff610a96565b60405161030c9190612b36565b60405180910390f35b34801561032157600080fd5b5061033c60048036038101906103379190612b51565b610aad565b005b34801561034a57600080fd5b50610353610c8f565b005b34801561036157600080fd5b5061037c60048036038101906103779190612b51565b610ce0565b005b34801561038a57600080fd5b506103a560048036038101906103a09190612a32565b610ec2565b005b3480156103b357600080fd5b506103bc610f5e565b6040516103c991906129da565b60405180910390f35b3480156103de57600080fd5b506103f960048036038101906103f49190612ba4565b610fec565b005b34801561040757600080fd5b50610410611038565b60405161041d91906129da565b60405180910390f35b34801561043257600080fd5b5061044d60048036038101906104489190612a32565b6110c6565b60405161045a9190612aa0565b60405180910390f35b34801561046f57600080fd5b5061048a60048036038101906104859190612ba4565b6110d8565b6040516104979190612b36565b60405180910390f35b3480156104ac57600080fd5b506104b5611190565b005b3480156104c357600080fd5b506104cc6111a4565b6040516104d99190612b36565b60405180910390f35b3480156104ee57600080fd5b506104f76111aa565b6040516105049190612aa0565b60405180910390f35b34801561051957600080fd5b50610534600480360381019061052f9190612a32565b6111d3565b005b34801561054257600080fd5b5061054b6111e5565b60405161055891906129da565b60405180910390f35b34801561056d57600080fd5b50610576611277565b6040516105839190612b36565b60405180910390f35b34801561059857600080fd5b506105a1611281565b6040516105ae9190612b36565b60405180910390f35b6105d160048036038101906105cc9190612a32565b611287565b005b3480156105df57600080fd5b506105fa60048036038101906105f59190612bfd565b61141d565b005b34801561060857600080fd5b50610611611594565b60405161061e9190612b36565b60405180910390f35b34801561063357600080fd5b5061064e60048036038101906106499190612d72565b61159a565b005b34801561065c57600080fd5b5061067760048036038101906106729190612a32565b61177f565b60405161068491906129da565b60405180910390f35b34801561069957600080fd5b506106a2611829565b6040516106af9190612926565b60405180910390f35b3480156106c457600080fd5b506106cd61183c565b6040516106da91906129da565b60405180910390f35b3480156106ef57600080fd5b506106f861184b565b60405161070591906129da565b60405180910390f35b34801561071a57600080fd5b5061073560048036038101906107309190612df5565b61186b565b6040516107429190612926565b60405180910390f35b34801561075757600080fd5b50610772600480360381019061076d9190612ba4565b6118ff565b005b34801561078057600080fd5b5061079b60048036038101906107969190612e35565b611982565b005b60006301ffc9a760e01b827bffffffffffffffffffffffffffffffffffffffffffffffffffffffff191614806107f857506380ac58cd60e01b827bffffffffffffffffffffffffffffffffffffffffffffffffffffffff1916145b806108285750635b5e139f60e01b827bffffffffffffffffffffffffffffffffffffffffffffffffffffffff1916145b9050919050565b60606003805461083e90612e91565b80601f016020809104026020016040519081016040528092919081815260200182805461086a90612e91565b80156108b75780601f1061088c576101008083540402835291602001916108b7565b820191906000526020600020905b81548152906001019060200180831161089a57829003601f168201915b5050505050905090565b60006108cc826119a7565b610902576040517fcf4700e400000000000000000000000000000000000000000000000000000000815260040160405180910390fd5b6007600083815260200190815260200160002060000160009054906101000a900473ffffffffffffffffffffffffffffffffffffffff169050919050565b600061094b826110c6565b90508073ffffffffffffffffffffffffffffffffffffffff1661096c611a06565b73ffffffffffffffffffffffffffffffffffffffff16146109cf5761099881610993611a06565b61186b565b6109ce576040517fcfb3b94200000000000000000000000000000000000000000000000000000000815260040160405180910390fd5b5b826007600084815260200190815260200160002060000160006101000a81548173ffffffffffffffffffffffffffffffffffffffff021916908373ffffffffffffffffffffffffffffffffffffffff160217905550818373ffffffffffffffffffffffffffffffffffffffff168273ffffffffffffffffffffffffffffffffffffffff167f8c5be1e5ebec7d5bd14f71427d1e84f3dd0314c0f7b2291e5b200ac8c7c3b92560405160405180910390a4505050565b610a8c611a0e565b80600d8190555050565b6000610aa0611a8c565b6002546001540303905090565b8260006daaeb6d7670e522a718067333cd4e73ffffffffffffffffffffffffffffffffffffffff163b1115610c7d573373ffffffffffffffffffffffffffffffffffffffff168173ffffffffffffffffffffffffffffffffffffffff1603610b1f57610b1a848484611a95565b610c89565b6daaeb6d7670e522a718067333cd4e73ffffffffffffffffffffffffffffffffffffffff1663c617113430336040518363ffffffff1660e01b8152600401610b68929190612ec2565b602060405180830381865afa158015610b85573d6000803e3d6000fd5b505050506040513d601f19601f82011682018060405250810190610ba99190612f00565b8015610c3b57506daaeb6d7670e522a718067333cd4e73ffffffffffffffffffffffffffffffffffffffff1663c617113430836040518363ffffffff1660e01b8152600401610bf9929190612ec2565b602060405180830381865afa158015610c16573d6000803e3d6000fd5b505050506040513d601f19601f82011682018060405250810190610c3a9190612f00565b5b610c7c57336040517fede71dcc000000000000000000000000000000000000000000000000000000008152600401610c739190612aa0565b60405180910390fd5b5b610c88848484611a95565b5b50505050565b610c97611a0e565b3373ffffffffffffffffffffffffffffffffffffffff166108fc479081150290604051600060405180830381858888f19350505050158015610cdd573d6000803e3d6000fd5b50565b8260006daaeb6d7670e522a718067333cd4e73ffffffffffffffffffffffffffffffffffffffff163b1115610eb0573373ffffffffffffffffffffffffffffffffffffffff168173ffffffffffffffffffffffffffffffffffffffff1603610d5257610d4d848484611db7565b610ebc565b6daaeb6d7670e522a718067333cd4e73ffffffffffffffffffffffffffffffffffffffff1663c617113430336040518363ffffffff1660e01b8152600401610d9b929190612ec2565b602060405180830381865afa158015610db8573d6000803e3d6000fd5b505050506040513d601f19601f82011682018060405250810190610ddc9190612f00565b8015610e6e57506daaeb6d7670e522a718067333cd4e73ffffffffffffffffffffffffffffffffffffffff1663c617113430836040518363ffffffff1660e01b8152600401610e2c929190612ec2565b602060405180830381865afa158015610e49573d6000803e3d6000fd5b505050506040513d601f19601f82011682018060405250810190610e6d9190612f00565b5b610eaf57336040517fede71dcc000000000000000000000000000000000000000000000000000000008152600401610ea69190612aa0565b60405180910390fd5b5b610ebb848484611db7565b5b50505050565b3373ffffffffffffffffffffffffffffffffffffffff16600c60009054906101000a900473ffffffffffffffffffffffffffffffffffffffff1673ffffffffffffffffffffffffffffffffffffffff1614610f52576040517f08c379a0000000000000000000000000000000000000000000000000000000008152600401610f4990612f9f565b60405180910390fd5b610f5b81611dd7565b50565b600a8054610f6b90612e91565b80601f0160208091040260200160405190810160405280929190818152602001828054610f9790612e91565b8015610fe45780601f10610fb957610100808354040283529160200191610fe4565b820191906000526020600020905b815481529060010190602001808311610fc757829003601f168201915b505050505081565b610ff4611a0e565b80600c60006101000a81548173ffffffffffffffffffffffffffffffffffffffff021916908373ffffffffffffffffffffffffffffffffffffffff16021790555050565b6009805461104590612e91565b80601f016020809104026020016040519081016040528092919081815260200182805461107190612e91565b80156110be5780601f10611093576101008083540402835291602001916110be565b820191906000526020600020905b8154815290600101906020018083116110a157829003601f168201915b505050505081565b60006110d182611de5565b9050919050565b60008073ffffffffffffffffffffffffffffffffffffffff168273ffffffffffffffffffffffffffffffffffffffff160361113f576040517f8f4eb60400000000000000000000000000000000000000000000000000000000815260040160405180910390fd5b67ffffffffffffffff600660008473ffffffffffffffffffffffffffffffffffffffff1673ffffffffffffffffffffffffffffffffffffffff16815260200190815260200160002054169050919050565b611198611a0e565b6111a26000611eb1565b565b600b5481565b60008060009054906101000a900473ffffffffffffffffffffffffffffffffffffffff16905090565b6111db611a0e565b80600f8190555050565b6060600480546111f490612e91565b80601f016020809104026020016040519081016040528092919081815260200182805461122090612e91565b801561126d5780601f106112425761010080835404028352916020019161126d565b820191906000526020600020905b81548152906001019060200180831161125057829003601f168201915b5050505050905090565b6000600f54905090565b600f5481565b600e60009054906101000a900460ff166112d6576040517f08c379a00000000000000000000000000000000000000000000000000000000081526004016112cd9061300b565b60405180910390fd5b600b54816112e2610a96565b6112ec919061305a565b1061132c576040517f08c379a0000000000000000000000000000000000000000000000000000000008152600401611323906130fc565b60405180910390fd5b600d5481611339336110d8565b611343919061305a565b1115611384576040517f08c379a000000000000000000000000000000000000000000000000000000000815260040161137b9061318e565b60405180910390fd5b8061138d611277565b61139791906131ae565b3410156113d9576040517f08c379a00000000000000000000000000000000000000000000000000000000081526004016113d09061327a565b60405180910390fd5b6113e33382611f75565b7ff5535ccd9f40eb4bc73fac8710dbb2effbf3329da83f62b35d9aa88161bb85ca336040516114129190612aa0565b60405180910390a150565b611425611a06565b73ffffffffffffffffffffffffffffffffffffffff168273ffffffffffffffffffffffffffffffffffffffff1603611489576040517fb06307db00000000000000000000000000000000000000000000000000000000815260040160405180910390fd5b8060086000611496611a06565b73ffffffffffffffffffffffffffffffffffffffff1673ffffffffffffffffffffffffffffffffffffffff16815260200190815260200160002060008473ffffffffffffffffffffffffffffffffffffffff1673ffffffffffffffffffffffffffffffffffffffff16815260200190815260200160002060006101000a81548160ff0219169083151502179055508173ffffffffffffffffffffffffffffffffffffffff16611543611a06565b73ffffffffffffffffffffffffffffffffffffffff167f17307eab39ab6107e8899845ad3d59bd9653f200f220920489ca2b5937696c31836040516115889190612926565b60405180910390a35050565b600d5481565b8360006daaeb6d7670e522a718067333cd4e73ffffffffffffffffffffffffffffffffffffffff163b111561176b573373ffffffffffffffffffffffffffffffffffffffff168173ffffffffffffffffffffffffffffffffffffffff160361160d5761160885858585612131565b611778565b6daaeb6d7670e522a718067333cd4e73ffffffffffffffffffffffffffffffffffffffff1663c617113430336040518363ffffffff1660e01b8152600401611656929190612ec2565b602060405180830381865afa158015611673573d6000803e3d6000fd5b505050506040513d601f19601f820116820180604052508101906116979190612f00565b801561172957506daaeb6d7670e522a718067333cd4e73ffffffffffffffffffffffffffffffffffffffff1663c617113430836040518363ffffffff1660e01b81526004016116e7929190612ec2565b602060405180830381865afa158015611704573d6000803e3d6000fd5b505050506040513d601f19601f820116820180604052508101906117289190612f00565b5b61176a57336040517fede71dcc0000000000000000000000000000000000000000000000000000000081526004016117619190612aa0565b60405180910390fd5b5b61177785858585612131565b5b5050505050565b606061178a826119a7565b6117c9576040517f08c379a00000000000000000000000000000000000000000000000000000000081526004016117c09061330c565b60405180910390fd5b60006117d36121a4565b905060008151116117f35760405180602001604052806000815250611821565b806117fd846121c4565b600a604051602001611811939291906133fc565b6040516020818303038152906040525b915050919050565b600e60009054906101000a900460ff1681565b60606118466121a4565b905090565b606060405180606001604052806036815260200161363e60369139905090565b6000600860008473ffffffffffffffffffffffffffffffffffffffff1673ffffffffffffffffffffffffffffffffffffffff16815260200190815260200160002060008373ffffffffffffffffffffffffffffffffffffffff1673ffffffffffffffffffffffffffffffffffffffff16815260200190815260200160002060009054906101000a900460ff16905092915050565b611907611a0e565b600073ffffffffffffffffffffffffffffffffffffffff168173ffffffffffffffffffffffffffffffffffffffff1603611976576040517f08c379a000000000000000000000000000000000000000000000000000000000815260040161196d9061349f565b60405180910390fd5b61197f81611eb1565b50565b61198a611a0e565b80600e60006101000a81548160ff02191690831515021790555050565b6000816119b2611a8c565b111580156119c1575060015482105b80156119ff575060007c0100000000000000000000000000000000000000000000000000000000600560008581526020019081526020016000205416145b9050919050565b600033905090565b611a16612292565b73ffffffffffffffffffffffffffffffffffffffff16611a346111aa565b73ffffffffffffffffffffffffffffffffffffffff1614611a8a576040517f08c379a0000000000000000000000000000000000000000000000000000000008152600401611a819061350b565b60405180910390fd5b565b60006001905090565b6000611aa082611de5565b90508373ffffffffffffffffffffffffffffffffffffffff168173ffffffffffffffffffffffffffffffffffffffff1614611b07576040517fa114810000000000000000000000000000000000000000000000000000000000815260040160405180910390fd5b600080611b138461229a565b91509150611b298187611b24611a06565b6122c1565b611b7557611b3e86611b39611a06565b61186b565b611b74576040517f59c896be00000000000000000000000000000000000000000000000000000000815260040160405180910390fd5b5b600073ffffffffffffffffffffffffffffffffffffffff168573ffffffffffffffffffffffffffffffffffffffff1603611bdb576040517fea553b3400000000000000000000000000000000000000000000000000000000815260040160405180910390fd5b611be88686866001612305565b8015611bf357600082555b600660008773ffffffffffffffffffffffffffffffffffffffff1673ffffffffffffffffffffffffffffffffffffffff168152602001908152602001600020600081546001900391905081905550600660008673ffffffffffffffffffffffffffffffffffffffff1673ffffffffffffffffffffffffffffffffffffffff1681526020019081526020016000206000815460010191905081905550611cc185611c9d88888761230b565b7c020000000000000000000000000000000000000000000000000000000017612333565b600560008681526020019081526020016000208190555060007c0200000000000000000000000000000000000000000000000000000000841603611d475760006001850190506000600560008381526020019081526020016000205403611d45576001548114611d44578360056000838152602001908152602001600020819055505b5b505b838573ffffffffffffffffffffffffffffffffffffffff168773ffffffffffffffffffffffffffffffffffffffff167fddf252ad1be2c89b69c2b068fc378daa952ba7f163c4a11628f55a4df523b3ef60405160405180910390a4611daf868686600161235e565b505050505050565b611dd28383836040518060200160405280600081525061159a565b505050565b611de2816000612364565b50565b60008082905080611df4611a8c565b11611e7a57600154811015611e795760006005600083815260200190815260200160002054905060007c0100000000000000000000000000000000000000000000000000000000821603611e77575b60008103611e6d576005600083600190039350838152602001908152602001600020549050611e43565b8092505050611eac565b505b5b6040517fdf2d9b4200000000000000000000000000000000000000000000000000000000815260040160405180910390fd5b919050565b60008060009054906101000a900473ffffffffffffffffffffffffffffffffffffffff169050816000806101000a81548173ffffffffffffffffffffffffffffffffffffffff021916908373ffffffffffffffffffffffffffffffffffffffff1602179055508173ffffffffffffffffffffffffffffffffffffffff168173ffffffffffffffffffffffffffffffffffffffff167f8be0079c531659141344cd1fd0a4f28419497f9722a3daafe3b4186f6b6457e060405160405180910390a35050565b6000600154905060008203611fb6576040517fb562e8dd00000000000000000000000000000000000000000000000000000000815260040160405180910390fd5b611fc36000848385612305565b600160406001901b178202600660008573ffffffffffffffffffffffffffffffffffffffff1673ffffffffffffffffffffffffffffffffffffffff1681526020019081526020016000206000828254019250508190555061203a8361202b600086600061230b565b612034856125b6565b17612333565b6005600083815260200190815260200160002081905550600080838301905073ffffffffffffffffffffffffffffffffffffffff85169150828260007fddf252ad1be2c89b69c2b068fc378daa952ba7f163c4a11628f55a4df523b3ef600080a4600183015b8181146120db57808360007fddf252ad1be2c89b69c2b068fc378daa952ba7f163c4a11628f55a4df523b3ef600080a46001810190506120a0565b5060008203612116576040517f2e07630000000000000000000000000000000000000000000000000000000000815260040160405180910390fd5b80600181905550505061212c600084838561235e565b505050565b61213c848484610aad565b60008373ffffffffffffffffffffffffffffffffffffffff163b1461219e57612167848484846125c6565b61219d576040517fd1a57ed600000000000000000000000000000000000000000000000000000000815260040160405180910390fd5b5b50505050565b606060405180606001604052806036815260200161367460369139905090565b6060600060016121d384612716565b01905060008167ffffffffffffffff8111156121f2576121f1612c47565b5b6040519080825280601f01601f1916602001820160405280156122245781602001600182028036833780820191505090505b509050600082602001820190505b600115612287578080600190039150507f3031323334353637383961626364656600000000000000000000000000000000600a86061a8153600a858161227b5761227a61352b565b5b04945060008503612232575b819350505050919050565b600033905090565b60008060006007600085815260200190815260200160002090508092508254915050915091565b600073ffffffffffffffffffffffffffffffffffffffff8316925073ffffffffffffffffffffffffffffffffffffffff821691508382148383141790509392505050565b50505050565b60008060e883901c905060e8612322868684612869565b62ffffff16901b9150509392505050565b600073ffffffffffffffffffffffffffffffffffffffff83169250814260a01b178317905092915050565b50505050565b600061236f83611de5565b905060008190506000806123828661229a565b9150915084156123eb5761239e8184612399611a06565b6122c1565b6123ea576123b3836123ae611a06565b61186b565b6123e9576040517f59c896be00000000000000000000000000000000000000000000000000000000815260040160405180910390fd5b5b5b6123f9836000886001612305565b801561240457600082555b600160806001901b03600660008573ffffffffffffffffffffffffffffffffffffffff1673ffffffffffffffffffffffffffffffffffffffff168152602001908152602001600020600082825401925050819055506124ac836124698560008861230b565b7c02000000000000000000000000000000000000000000000000000000007c01000000000000000000000000000000000000000000000000000000001717612333565b600560008881526020019081526020016000208190555060007c0200000000000000000000000000000000000000000000000000000000851603612532576000600187019050600060056000838152602001908152602001600020540361253057600154811461252f578460056000838152602001908152602001600020819055505b5b505b85600073ffffffffffffffffffffffffffffffffffffffff168473ffffffffffffffffffffffffffffffffffffffff167fddf252ad1be2c89b69c2b068fc378daa952ba7f163c4a11628f55a4df523b3ef60405160405180910390a461259c83600088600161235e565b600260008154809291906001019190505550505050505050565b60006001821460e11b9050919050565b60008373ffffffffffffffffffffffffffffffffffffffff1663150b7a026125ec611a06565b8786866040518563ffffffff1660e01b815260040161260e94939291906135af565b6020604051808303816000875af192505050801561264a57506040513d601f19601f820116820180604052508101906126479190613610565b60015b6126c3573d806000811461267a576040519150601f19603f3d011682016040523d82523d6000602084013e61267f565b606091505b5060008151036126bb576040517fd1a57ed600000000000000000000000000000000000000000000000000000000815260040160405180910390fd5b805181602001fd5b63150b7a0260e01b7bffffffffffffffffffffffffffffffffffffffffffffffffffffffff1916817bffffffffffffffffffffffffffffffffffffffffffffffffffffffff191614915050949350505050565b600080600090507a184f03e93ff9f4daa797ed6e38ed64bf6a1f0100000000000000008310612774577a184f03e93ff9f4daa797ed6e38ed64bf6a1f010000000000000000838161276a5761276961352b565b5b0492506040810190505b6d04ee2d6d415b85acef810000000083106127b1576d04ee2d6d415b85acef810000000083816127a7576127a661352b565b5b0492506020810190505b662386f26fc1000083106127e057662386f26fc1000083816127d6576127d561352b565b5b0492506010810190505b6305f5e1008310612809576305f5e10083816127ff576127fe61352b565b5b0492506008810190505b612710831061282e5761271083816128245761282361352b565b5b0492506004810190505b6064831061285157606483816128475761284661352b565b5b0492506002810190505b600a8310612860576001810190505b80915050919050565b60009392505050565b6000604051905090565b600080fd5b600080fd5b60007fffffffff0000000000000000000000000000000000000000000000000000000082169050919050565b6128bb81612886565b81146128c657600080fd5b50565b6000813590506128d8816128b2565b92915050565b6000602082840312156128f4576128f361287c565b5b6000612902848285016128c9565b91505092915050565b60008115159050919050565b6129208161290b565b82525050565b600060208201905061293b6000830184612917565b92915050565b600081519050919050565b600082825260208201905092915050565b60005b8381101561297b578082015181840152602081019050612960565b8381111561298a576000848401525b50505050565b6000601f19601f8301169050919050565b60006129ac82612941565b6129b6818561294c565b93506129c681856020860161295d565b6129cf81612990565b840191505092915050565b600060208201905081810360008301526129f481846129a1565b905092915050565b6000819050919050565b612a0f816129fc565b8114612a1a57600080fd5b50565b600081359050612a2c81612a06565b92915050565b600060208284031215612a4857612a4761287c565b5b6000612a5684828501612a1d565b91505092915050565b600073ffffffffffffffffffffffffffffffffffffffff82169050919050565b6000612a8a82612a5f565b9050919050565b612a9a81612a7f565b82525050565b6000602082019050612ab56000830184612a91565b92915050565b612ac481612a7f565b8114612acf57600080fd5b50565b600081359050612ae181612abb565b92915050565b60008060408385031215612afe57612afd61287c565b5b6000612b0c85828601612ad2565b9250506020612b1d85828601612a1d565b9150509250929050565b612b30816129fc565b82525050565b6000602082019050612b4b6000830184612b27565b92915050565b600080600060608486031215612b6a57612b6961287c565b5b6000612b7886828701612ad2565b9350506020612b8986828701612ad2565b9250506040612b9a86828701612a1d565b9150509250925092565b600060208284031215612bba57612bb961287c565b5b6000612bc884828501612ad2565b91505092915050565b612bda8161290b565b8114612be557600080fd5b50565b600081359050612bf781612bd1565b92915050565b60008060408385031215612c1457612c1361287c565b5b6000612c2285828601612ad2565b9250506020612c3385828601612be8565b9150509250929050565b600080fd5b600080fd5b7f4e487b7100000000000000000000000000000000000000000000000000000000600052604160045260246000fd5b612c7f82612990565b810181811067ffffffffffffffff82111715612c9e57612c9d612c47565b5b80604052505050565b6000612cb1612872565b9050612cbd8282612c76565b919050565b600067ffffffffffffffff821115612cdd57612cdc612c47565b5b612ce682612990565b9050602081019050919050565b82818337600083830152505050565b6000612d15612d1084612cc2565b612ca7565b905082815260208101848484011115612d3157612d30612c42565b5b612d3c848285612cf3565b509392505050565b600082601f830112612d5957612d58612c3d565b5b8135612d69848260208601612d02565b91505092915050565b60008060008060808587031215612d8c57612d8b61287c565b5b6000612d9a87828801612ad2565b9450506020612dab87828801612ad2565b9350506040612dbc87828801612a1d565b925050606085013567ffffffffffffffff811115612ddd57612ddc612881565b5b612de987828801612d44565b91505092959194509250565b60008060408385031215612e0c57612e0b61287c565b5b6000612e1a85828601612ad2565b9250506020612e2b85828601612ad2565b9150509250929050565b600060208284031215612e4b57612e4a61287c565b5b6000612e5984828501612be8565b91505092915050565b7f4e487b7100000000000000000000000000000000000000000000000000000000600052602260045260246000fd5b60006002820490506001821680612ea957607f821691505b602082108103612ebc57612ebb612e62565b5b50919050565b6000604082019050612ed76000830185612a91565b612ee46020830184612a91565b9392505050565b600081519050612efa81612bd1565b92915050565b600060208284031215612f1657612f1561287c565b5b6000612f2484828501612eeb565b91505092915050565b7f596f7520646f6e277420686176652074686520726967687420746f206275726e60008201527f2074686973204e46540000000000000000000000000000000000000000000000602082015250565b6000612f8960298361294c565b9150612f9482612f2d565b604082019050919050565b60006020820190508181036000830152612fb881612f7c565b9050919050565b7f4d696e74696e67206973206e6f7420656e61626c656400000000000000000000600082015250565b6000612ff560168361294c565b915061300082612fbf565b602082019050919050565b6000602082019050818103600083015261302481612fe8565b9050919050565b7f4e487b7100000000000000000000000000000000000000000000000000000000600052601160045260246000fd5b6000613065826129fc565b9150613070836129fc565b9250827fffffffffffffffffffffffffffffffffffffffffffffffffffffffffffffffff038211156130a5576130a461302b565b5b828201905092915050565b7f43616e6e6f74206d696e74206d6f7265207468616e206d617820737570706c79600082015250565b60006130e660208361294c565b91506130f1826130b0565b602082019050919050565b60006020820190508181036000830152613115816130d9565b9050919050565b7f456163682061646472657373206d6179206f6e6c79206d696e742078204e465460008201527f7321000000000000000000000000000000000000000000000000000000000000602082015250565b600061317860228361294c565b91506131838261311c565b604082019050919050565b600060208201905081810360008301526131a78161316b565b9050919050565b60006131b9826129fc565b91506131c4836129fc565b9250817fffffffffffffffffffffffffffffffffffffffffffffffffffffffffffffffff04831182151516156131fd576131fc61302b565b5b828202905092915050565b7f4e6f7420656e6f756768204554482073656e743b20636865636b20707269636560008201527f2100000000000000000000000000000000000000000000000000000000000000602082015250565b600061326460218361294c565b915061326f82613208565b604082019050919050565b6000602082019050818103600083015261329381613257565b9050919050565b7f4552433732314d657461646174613a2055524920717565727920666f72206e6f60008201527f6e6578697374656e7420746f6b656e0000000000000000000000000000000000602082015250565b60006132f6602f8361294c565b91506133018261329a565b604082019050919050565b60006020820190508181036000830152613325816132e9565b9050919050565b600081905092915050565b600061334282612941565b61334c818561332c565b935061335c81856020860161295d565b80840191505092915050565b60008190508160005260206000209050919050565b6000815461338a81612e91565b613394818661332c565b945060018216600081146133af57600181146133c0576133f3565b60ff198316865281860193506133f3565b6133c985613368565b60005b838110156133eb578154818901526001820191506020810190506133cc565b838801955050505b50505092915050565b60006134088286613337565b91506134148285613337565b9150613420828461337d565b9150819050949350505050565b7f4f776e61626c653a206e6577206f776e657220697320746865207a65726f206160008201527f6464726573730000000000000000000000000000000000000000000000000000602082015250565b600061348960268361294c565b91506134948261342d565b604082019050919050565b600060208201905081810360008301526134b88161347c565b9050919050565b7f4f776e61626c653a2063616c6c6572206973206e6f7420746865206f776e6572600082015250565b60006134f560208361294c565b9150613500826134bf565b602082019050919050565b60006020820190508181036000830152613524816134e8565b9050919050565b7f4e487b7100000000000000000000000000000000000000000000000000000000600052601260045260246000fd5b600081519050919050565b600082825260208201905092915050565b60006135818261355a565b61358b8185613565565b935061359b81856020860161295d565b6135a481612990565b840191505092915050565b60006080820190506135c46000830187612a91565b6135d16020830186612a91565b6135de6040830185612b27565b81810360608301526135f08184613576565b905095945050505050565b60008151905061360a816128b2565b92915050565b6000602082840312156136265761362561287c565b5b6000613634848285016135fb565b9150509291505056fe697066733a2f2f516d51797a54353771616873475932717036665a3347315445557a6369446d413778635061697953315173774c722f697066733a2f2f516d5a6e584762586770424e6a414a6161616f5773483556596f544e6b566770566d62706746586e5455795135642fa2646970667358221220e6f3e89267f6946fb7c0cc80a3242f7b8376d7c78e0fa889d9d3393d2032de5b64736f6c634300080d0033",
  "linkReferences": {},
  "deployedLinkReferences": {}
}