{
  "_format": "hh-sol-artifact-1",
  "contractName": "Planting",
  "sourceName": "src/backend/contracts/Planting.sol",
  "abi": [
    {
      "inputs": [
        {
          "internalType": "address",
          "name": "_nftAddress",
          "type": "address"
        }
      ],
      "stateMutability": "nonpayable",
      "type": "constructor"
    },
    {
      "anonymous": false,
      "inputs": [
        {
          "indexed": true,
          "internalType": "address",
          "name": "previousOwner",
          "type": "address"
        },
        {
          "indexed": true,
          "internalType": "address",
          "name": "newOwner",
          "type": "address"
        }
      ],
      "name": "OwnershipTransferred",
      "type": "event"
    },
    {
      "anonymous": false,
      "inputs": [
        {
          "indexed": false,
          "internalType": "address",
          "name": "user",
          "type": "address"
        }
      ],
      "name": "PlantingSuccessful",
      "type": "event"
    },
    {
      "inputs": [
        {
          "internalType": "address",
          "name": "_user",
          "type": "address"
        }
      ],
      "name": "currentPhaseFinished",
      "outputs": [
        {
          "internalType": "bool",
          "name": "",
          "type": "bool"
        }
      ],
      "stateMutability": "view",
      "type": "function"
    },
    {
      "inputs": [
        {
          "internalType": "address",
          "name": "_user",
          "type": "address"
        }
      ],
      "name": "getPlant",
      "outputs": [
        {
          "components": [
            {
              "internalType": "uint256",
              "name": "phase",
              "type": "uint256"
            },
            {
              "internalType": "uint256",
              "name": "timestampPhaseStarted",
              "type": "uint256"
            }
          ],
          "internalType": "struct Planting.Plant",
          "name": "plant",
          "type": "tuple"
        }
      ],
      "stateMutability": "view",
      "type": "function"
    },
    {
      "inputs": [],
      "name": "owner",
      "outputs": [
        {
          "internalType": "address",
          "name": "",
          "type": "address"
        }
      ],
      "stateMutability": "view",
      "type": "function"
    },
    {
      "inputs": [
        {
          "internalType": "uint256",
          "name": "",
          "type": "uint256"
        }
      ],
      "name": "phaseDuration",
      "outputs": [
        {
          "internalType": "uint256",
          "name": "",
          "type": "uint256"
        }
      ],
      "stateMutability": "view",
      "type": "function"
    },
    {
      "inputs": [
        {
          "internalType": "uint256",
          "name": "_tokenId",
          "type": "uint256"
        }
      ],
      "name": "plant",
      "outputs": [],
      "stateMutability": "nonpayable",
      "type": "function"
    },
    {
      "inputs": [
        {
          "internalType": "address",
          "name": "",
          "type": "address"
        }
      ],
      "name": "plantPerUser",
      "outputs": [
        {
          "internalType": "uint256",
          "name": "phase",
          "type": "uint256"
        },
        {
          "internalType": "uint256",
          "name": "timestampPhaseStarted",
          "type": "uint256"
        }
      ],
      "stateMutability": "view",
      "type": "function"
    },
    {
      "inputs": [],
      "name": "renounceOwnership",
      "outputs": [],
      "stateMutability": "nonpayable",
      "type": "function"
    },
    {
      "inputs": [
        {
          "internalType": "address",
          "name": "newOwner",
          "type": "address"
        }
      ],
      "name": "transferOwnership",
      "outputs": [],
      "stateMutability": "nonpayable",
      "type": "function"
    },
    {
      "inputs": [],
      "name": "withdraw",
      "outputs": [],
      "stateMutability": "nonpayable",
      "type": "function"
    }
  ],
  "bytecode": "0x608060405260046008553480156200001657600080fd5b50604051620011ef380380620011ef83398181016040528101906200003c9190620002f5565b6200005c62000050620001bf60201b60201c565b620001c760201b60201c565b80600160006101000a81548173ffffffffffffffffffffffffffffffffffffffff021916908373ffffffffffffffffffffffffffffffffffffffff16021790555060006003600060058110620000b757620000b662000327565b5b01819055506138406003600160058110620000d757620000d662000327565b5b018190555061fd206003600260058110620000f757620000f662000327565b5b01819055506202a3006003806005811062000117576200011662000327565b5b018190555062054600600360046005811062000138576200013762000327565b5b0181905550603c600360016005811062000157576200015662000327565b5b0181905550603c600360026005811062000176576200017562000327565b5b0181905550603c6003806005811062000194576200019362000327565b5b0181905550603c6003600460058110620001b357620001b262000327565b5b01819055505062000356565b600033905090565b60008060009054906101000a900473ffffffffffffffffffffffffffffffffffffffff169050816000806101000a81548173ffffffffffffffffffffffffffffffffffffffff021916908373ffffffffffffffffffffffffffffffffffffffff1602179055508173ffffffffffffffffffffffffffffffffffffffff168173ffffffffffffffffffffffffffffffffffffffff167f8be0079c531659141344cd1fd0a4f28419497f9722a3daafe3b4186f6b6457e060405160405180910390a35050565b600080fd5b600073ffffffffffffffffffffffffffffffffffffffff82169050919050565b6000620002bd8262000290565b9050919050565b620002cf81620002b0565b8114620002db57600080fd5b50565b600081519050620002ef81620002c4565b92915050565b6000602082840312156200030e576200030d6200028b565b5b60006200031e84828501620002de565b91505092915050565b7f4e487b7100000000000000000000000000000000000000000000000000000000600052603260045260246000fd5b610e8980620003666000396000f3fe608060405234801561001057600080fd5b50600436106100935760003560e01c80638da5cb5b116100665780638da5cb5b1461010c578063c1ab884d1461012a578063c383e22b1461015a578063de1a621714610176578063f2fde38b146101a757610093565b80631356d3dc146100985780633ccfd60b146100c85780634e2f90e9146100d2578063715018a614610102575b600080fd5b6100b260048036038101906100ad9190610922565b6101c3565b6040516100bf919061096a565b60405180910390f35b6100d061025f565b005b6100ec60048036038101906100e79190610922565b6102b0565b6040516100f991906109cd565b60405180910390f35b61010a61031d565b005b610114610331565b60405161012191906109f7565b60405180910390f35b610144600480360381019061013f9190610a3e565b61035a565b6040516101519190610a7a565b60405180910390f35b610174600480360381019061016f9190610a3e565b610375565b005b610190600480360381019061018b9190610922565b6106b4565b60405161019e929190610a95565b60405180910390f35b6101c160048036038101906101bc9190610922565b6106d8565b005b600080600260008473ffffffffffffffffffffffffffffffffffffffff1673ffffffffffffffffffffffffffffffffffffffff168152602001908152602001600020604051806040016040529081600082015481526020016001820154815250509050600042905080600383600001516005811061024457610243610abe565b5b015483602001516102559190610b1c565b1092505050919050565b61026761075b565b3373ffffffffffffffffffffffffffffffffffffffff166108fc479081150290604051600060405180830381858888f193505050501580156102ad573d6000803e3d6000fd5b50565b6102b86108a5565b600260008373ffffffffffffffffffffffffffffffffffffffff1673ffffffffffffffffffffffffffffffffffffffff168152602001908152602001600020604051806040016040529081600082015481526020016001820154815250509050919050565b61032561075b565b61032f60006107d9565b565b60008060009054906101000a900473ffffffffffffffffffffffffffffffffffffffff16905090565b6003816005811061036a57600080fd5b016000915090505481565b3373ffffffffffffffffffffffffffffffffffffffff16600160009054906101000a900473ffffffffffffffffffffffffffffffffffffffff1673ffffffffffffffffffffffffffffffffffffffff16636352211e836040518263ffffffff1660e01b81526004016103e79190610a7a565b602060405180830381865afa158015610404573d6000803e3d6000fd5b505050506040513d601f19601f820116820180604052508101906104289190610b87565b73ffffffffffffffffffffffffffffffffffffffff161461047e576040517f08c379a000000000000000000000000000000000000000000000000000000000815260040161047590610c11565b60405180910390fd5b610487336101c3565b6104c6576040517f08c379a00000000000000000000000000000000000000000000000000000000081526004016104bd90610ca3565b60405180910390fd5b600854600260003373ffffffffffffffffffffffffffffffffffffffff1673ffffffffffffffffffffffffffffffffffffffff168152602001908152602001600020600001541061054c576040517f08c379a000000000000000000000000000000000000000000000000000000000815260040161054390610d35565b60405180910390fd5b600160009054906101000a900473ffffffffffffffffffffffffffffffffffffffff1673ffffffffffffffffffffffffffffffffffffffff166342966c68826040518263ffffffff1660e01b81526004016105a79190610a7a565b600060405180830381600087803b1580156105c157600080fd5b505af11580156105d5573d6000803e3d6000fd5b505050506001600260003373ffffffffffffffffffffffffffffffffffffffff1673ffffffffffffffffffffffffffffffffffffffff168152602001908152602001600020600001600082825461062c9190610b1c565b9250508190555042600260003373ffffffffffffffffffffffffffffffffffffffff1673ffffffffffffffffffffffffffffffffffffffff168152602001908152602001600020600101819055507ff910886e6fbbddd6ddfa09270d2dbe2cecfa6cdf2bb4f018b23e19cc0ef1fb61336040516106a991906109f7565b60405180910390a150565b60026020528060005260406000206000915090508060000154908060010154905082565b6106e061075b565b600073ffffffffffffffffffffffffffffffffffffffff168173ffffffffffffffffffffffffffffffffffffffff160361074f576040517f08c379a000000000000000000000000000000000000000000000000000000000815260040161074690610dc7565b60405180910390fd5b610758816107d9565b50565b61076361089d565b73ffffffffffffffffffffffffffffffffffffffff16610781610331565b73ffffffffffffffffffffffffffffffffffffffff16146107d7576040517f08c379a00000000000000000000000000000000000000000000000000000000081526004016107ce90610e33565b60405180910390fd5b565b60008060009054906101000a900473ffffffffffffffffffffffffffffffffffffffff169050816000806101000a81548173ffffffffffffffffffffffffffffffffffffffff021916908373ffffffffffffffffffffffffffffffffffffffff1602179055508173ffffffffffffffffffffffffffffffffffffffff168173ffffffffffffffffffffffffffffffffffffffff167f8be0079c531659141344cd1fd0a4f28419497f9722a3daafe3b4186f6b6457e060405160405180910390a35050565b600033905090565b604051806040016040528060008152602001600081525090565b600080fd5b600073ffffffffffffffffffffffffffffffffffffffff82169050919050565b60006108ef826108c4565b9050919050565b6108ff816108e4565b811461090a57600080fd5b50565b60008135905061091c816108f6565b92915050565b600060208284031215610938576109376108bf565b5b60006109468482850161090d565b91505092915050565b60008115159050919050565b6109648161094f565b82525050565b600060208201905061097f600083018461095b565b92915050565b6000819050919050565b61099881610985565b82525050565b6040820160008201516109b4600085018261098f565b5060208201516109c7602085018261098f565b50505050565b60006040820190506109e2600083018461099e565b92915050565b6109f1816108e4565b82525050565b6000602082019050610a0c60008301846109e8565b92915050565b610a1b81610985565b8114610a2657600080fd5b50565b600081359050610a3881610a12565b92915050565b600060208284031215610a5457610a536108bf565b5b6000610a6284828501610a29565b91505092915050565b610a7481610985565b82525050565b6000602082019050610a8f6000830184610a6b565b92915050565b6000604082019050610aaa6000830185610a6b565b610ab76020830184610a6b565b9392505050565b7f4e487b7100000000000000000000000000000000000000000000000000000000600052603260045260246000fd5b7f4e487b7100000000000000000000000000000000000000000000000000000000600052601160045260246000fd5b6000610b2782610985565b9150610b3283610985565b9250827fffffffffffffffffffffffffffffffffffffffffffffffffffffffffffffffff03821115610b6757610b66610aed565b5b828201905092915050565b600081519050610b81816108f6565b92915050565b600060208284031215610b9d57610b9c6108bf565b5b6000610bab84828501610b72565b91505092915050565b600082825260208201905092915050565b7f596f7520646f6e2774206f776e2074686973206265616e210000000000000000600082015250565b6000610bfb601883610bb4565b9150610c0682610bc5565b602082019050919050565b60006020820190508181036000830152610c2a81610bee565b9050919050565b7f5468652063757272656e742067726f77696e67207068617365206f6620796f7560008201527f7220706c616e74206973206e6f742066696e6973686564207965742100000000602082015250565b6000610c8d603c83610bb4565b9150610c9882610c31565b604082019050919050565b60006020820190508181036000830152610cbc81610c80565b9050919050565b7f596f757220706c616e7420616c72656164792072656163686564206d6178696d60008201527f756d2067726f7774682100000000000000000000000000000000000000000000602082015250565b6000610d1f602a83610bb4565b9150610d2a82610cc3565b604082019050919050565b60006020820190508181036000830152610d4e81610d12565b9050919050565b7f4f776e61626c653a206e6577206f776e657220697320746865207a65726f206160008201527f6464726573730000000000000000000000000000000000000000000000000000602082015250565b6000610db1602683610bb4565b9150610dbc82610d55565b604082019050919050565b60006020820190508181036000830152610de081610da4565b9050919050565b7f4f776e61626c653a2063616c6c6572206973206e6f7420746865206f776e6572600082015250565b6000610e1d602083610bb4565b9150610e2882610de7565b602082019050919050565b60006020820190508181036000830152610e4c81610e10565b905091905056fea2646970667358221220bed6434ef14edb08fb768915d7f799c1771c9c00500f02913a6ccfee1d51f53764736f6c634300080d0033",
  "linkReferences": {},
  "deployedLinkReferences": {}
}