{
  "_format": "hh-sol-artifact-1",
  "contractName": "Planting",
  "sourceName": "src/backend/contracts/Planting.sol",
  "abi": [
    {
      "inputs": [
        {
          "internalType": "address",
          "name": "_nftAddress",
          "type": "address"
        }
      ],
      "stateMutability": "nonpayable",
      "type": "constructor"
    },
    {
      "anonymous": false,
      "inputs": [
        {
          "indexed": true,
          "internalType": "address",
          "name": "previousOwner",
          "type": "address"
        },
        {
          "indexed": true,
          "internalType": "address",
          "name": "newOwner",
          "type": "address"
        }
      ],
      "name": "OwnershipTransferred",
      "type": "event"
    },
    {
      "anonymous": false,
      "inputs": [
        {
          "indexed": false,
          "internalType": "address",
          "name": "user",
          "type": "address"
        }
      ],
      "name": "PlantingSuccessful",
      "type": "event"
    },
    {
      "inputs": [
        {
          "internalType": "address",
          "name": "_user",
          "type": "address"
        }
      ],
      "name": "currentPhaseFinished",
      "outputs": [
        {
          "internalType": "bool",
          "name": "",
          "type": "bool"
        }
      ],
      "stateMutability": "view",
      "type": "function"
    },
    {
      "inputs": [
        {
          "internalType": "address",
          "name": "_user",
          "type": "address"
        }
      ],
      "name": "getPlant",
      "outputs": [
        {
          "components": [
            {
              "internalType": "uint256",
              "name": "phase",
              "type": "uint256"
            },
            {
              "internalType": "uint256",
              "name": "timestampPhaseStarted",
              "type": "uint256"
            }
          ],
          "internalType": "struct Planting.Plant",
          "name": "plant",
          "type": "tuple"
        }
      ],
      "stateMutability": "view",
      "type": "function"
    },
    {
      "inputs": [],
      "name": "owner",
      "outputs": [
        {
          "internalType": "address",
          "name": "",
          "type": "address"
        }
      ],
      "stateMutability": "view",
      "type": "function"
    },
    {
      "inputs": [
        {
          "internalType": "uint256",
          "name": "",
          "type": "uint256"
        }
      ],
      "name": "phaseDuration",
      "outputs": [
        {
          "internalType": "uint256",
          "name": "",
          "type": "uint256"
        }
      ],
      "stateMutability": "view",
      "type": "function"
    },
    {
      "inputs": [
        {
          "internalType": "uint256",
          "name": "_tokenId",
          "type": "uint256"
        }
      ],
      "name": "plant",
      "outputs": [],
      "stateMutability": "nonpayable",
      "type": "function"
    },
    {
      "inputs": [
        {
          "internalType": "address",
          "name": "",
          "type": "address"
        }
      ],
      "name": "plantPerUser",
      "outputs": [
        {
          "internalType": "uint256",
          "name": "phase",
          "type": "uint256"
        },
        {
          "internalType": "uint256",
          "name": "timestampPhaseStarted",
          "type": "uint256"
        }
      ],
      "stateMutability": "view",
      "type": "function"
    },
    {
      "inputs": [],
      "name": "renounceOwnership",
      "outputs": [],
      "stateMutability": "nonpayable",
      "type": "function"
    },
    {
      "inputs": [
        {
          "internalType": "address",
          "name": "newOwner",
          "type": "address"
        }
      ],
      "name": "transferOwnership",
      "outputs": [],
      "stateMutability": "nonpayable",
      "type": "function"
    },
    {
      "inputs": [],
      "name": "withdraw",
      "outputs": [],
      "stateMutability": "nonpayable",
      "type": "function"
    }
  ],
  "bytecode": "0x608060405260046008553480156200001657600080fd5b506040516200113d3803806200113d83398181016040528101906200003c91906200027a565b6200005c620000506200014460201b60201c565b6200014c60201b60201c565b80600160006101000a81548173ffffffffffffffffffffffffffffffffffffffff021916908373ffffffffffffffffffffffffffffffffffffffff16021790555060006003600060058110620000b757620000b6620002ac565b5b01819055506138406003600160058110620000d757620000d6620002ac565b5b018190555061fd206003600260058110620000f757620000f6620002ac565b5b01819055506202a30060038060058110620001175762000116620002ac565b5b0181905550620546006003600460058110620001385762000137620002ac565b5b018190555050620002db565b600033905090565b60008060009054906101000a900473ffffffffffffffffffffffffffffffffffffffff169050816000806101000a81548173ffffffffffffffffffffffffffffffffffffffff021916908373ffffffffffffffffffffffffffffffffffffffff1602179055508173ffffffffffffffffffffffffffffffffffffffff168173ffffffffffffffffffffffffffffffffffffffff167f8be0079c531659141344cd1fd0a4f28419497f9722a3daafe3b4186f6b6457e060405160405180910390a35050565b600080fd5b600073ffffffffffffffffffffffffffffffffffffffff82169050919050565b6000620002428262000215565b9050919050565b620002548162000235565b81146200026057600080fd5b50565b600081519050620002748162000249565b92915050565b60006020828403121562000293576200029262000210565b5b6000620002a38482850162000263565b91505092915050565b7f4e487b7100000000000000000000000000000000000000000000000000000000600052603260045260246000fd5b610e5280620002eb6000396000f3fe608060405234801561001057600080fd5b50600436106100935760003560e01c80638da5cb5b116100665780638da5cb5b1461010c578063c1ab884d1461012a578063c383e22b1461015a578063de1a621714610176578063f2fde38b146101a757610093565b80631356d3dc146100985780633ccfd60b146100c85780634e2f90e9146100d2578063715018a614610102575b600080fd5b6100b260048036038101906100ad91906108eb565b6101c3565b6040516100bf9190610933565b60405180910390f35b6100d061025f565b005b6100ec60048036038101906100e791906108eb565b6102b0565b6040516100f99190610996565b60405180910390f35b61010a61031d565b005b610114610331565b60405161012191906109c0565b60405180910390f35b610144600480360381019061013f9190610a07565b61035a565b6040516101519190610a43565b60405180910390f35b610174600480360381019061016f9190610a07565b610375565b005b610190600480360381019061018b91906108eb565b61067d565b60405161019e929190610a5e565b60405180910390f35b6101c160048036038101906101bc91906108eb565b6106a1565b005b600080600260008473ffffffffffffffffffffffffffffffffffffffff1673ffffffffffffffffffffffffffffffffffffffff168152602001908152602001600020604051806040016040529081600082015481526020016001820154815250509050600042905080600383600001516005811061024457610243610a87565b5b015483602001516102559190610ae5565b1092505050919050565b610267610724565b3373ffffffffffffffffffffffffffffffffffffffff166108fc479081150290604051600060405180830381858888f193505050501580156102ad573d6000803e3d6000fd5b50565b6102b861086e565b600260008373ffffffffffffffffffffffffffffffffffffffff1673ffffffffffffffffffffffffffffffffffffffff168152602001908152602001600020604051806040016040529081600082015481526020016001820154815250509050919050565b610325610724565b61032f60006107a2565b565b60008060009054906101000a900473ffffffffffffffffffffffffffffffffffffffff16905090565b6003816005811061036a57600080fd5b016000915090505481565b3373ffffffffffffffffffffffffffffffffffffffff16600160009054906101000a900473ffffffffffffffffffffffffffffffffffffffff1673ffffffffffffffffffffffffffffffffffffffff16636352211e836040518263ffffffff1660e01b81526004016103e79190610a43565b602060405180830381865afa158015610404573d6000803e3d6000fd5b505050506040513d601f19601f820116820180604052508101906104289190610b50565b73ffffffffffffffffffffffffffffffffffffffff161461047e576040517f08c379a000000000000000000000000000000000000000000000000000000000815260040161047590610bda565b60405180910390fd5b610487336101c3565b6104c6576040517f08c379a00000000000000000000000000000000000000000000000000000000081526004016104bd90610c6c565b60405180910390fd5b600854600260003373ffffffffffffffffffffffffffffffffffffffff1673ffffffffffffffffffffffffffffffffffffffff168152602001908152602001600020600001541061054c576040517f08c379a000000000000000000000000000000000000000000000000000000000815260040161054390610cfe565b60405180910390fd5b600160009054906101000a900473ffffffffffffffffffffffffffffffffffffffff1673ffffffffffffffffffffffffffffffffffffffff166342966c68826040518263ffffffff1660e01b81526004016105a79190610a43565b600060405180830381600087803b1580156105c157600080fd5b505af11580156105d5573d6000803e3d6000fd5b505050506001600260003373ffffffffffffffffffffffffffffffffffffffff1673ffffffffffffffffffffffffffffffffffffffff168152602001908152602001600020600001600082825461062c9190610ae5565b9250508190555042600260003373ffffffffffffffffffffffffffffffffffffffff1673ffffffffffffffffffffffffffffffffffffffff1681526020019081526020016000206001018190555050565b60026020528060005260406000206000915090508060000154908060010154905082565b6106a9610724565b600073ffffffffffffffffffffffffffffffffffffffff168173ffffffffffffffffffffffffffffffffffffffff1603610718576040517f08c379a000000000000000000000000000000000000000000000000000000000815260040161070f90610d90565b60405180910390fd5b610721816107a2565b50565b61072c610866565b73ffffffffffffffffffffffffffffffffffffffff1661074a610331565b73ffffffffffffffffffffffffffffffffffffffff16146107a0576040517f08c379a000000000000000000000000000000000000000000000000000000000815260040161079790610dfc565b60405180910390fd5b565b60008060009054906101000a900473ffffffffffffffffffffffffffffffffffffffff169050816000806101000a81548173ffffffffffffffffffffffffffffffffffffffff021916908373ffffffffffffffffffffffffffffffffffffffff1602179055508173ffffffffffffffffffffffffffffffffffffffff168173ffffffffffffffffffffffffffffffffffffffff167f8be0079c531659141344cd1fd0a4f28419497f9722a3daafe3b4186f6b6457e060405160405180910390a35050565b600033905090565b604051806040016040528060008152602001600081525090565b600080fd5b600073ffffffffffffffffffffffffffffffffffffffff82169050919050565b60006108b88261088d565b9050919050565b6108c8816108ad565b81146108d357600080fd5b50565b6000813590506108e5816108bf565b92915050565b60006020828403121561090157610900610888565b5b600061090f848285016108d6565b91505092915050565b60008115159050919050565b61092d81610918565b82525050565b60006020820190506109486000830184610924565b92915050565b6000819050919050565b6109618161094e565b82525050565b60408201600082015161097d6000850182610958565b5060208201516109906020850182610958565b50505050565b60006040820190506109ab6000830184610967565b92915050565b6109ba816108ad565b82525050565b60006020820190506109d560008301846109b1565b92915050565b6109e48161094e565b81146109ef57600080fd5b50565b600081359050610a01816109db565b92915050565b600060208284031215610a1d57610a1c610888565b5b6000610a2b848285016109f2565b91505092915050565b610a3d8161094e565b82525050565b6000602082019050610a586000830184610a34565b92915050565b6000604082019050610a736000830185610a34565b610a806020830184610a34565b9392505050565b7f4e487b7100000000000000000000000000000000000000000000000000000000600052603260045260246000fd5b7f4e487b7100000000000000000000000000000000000000000000000000000000600052601160045260246000fd5b6000610af08261094e565b9150610afb8361094e565b9250827fffffffffffffffffffffffffffffffffffffffffffffffffffffffffffffffff03821115610b3057610b2f610ab6565b5b828201905092915050565b600081519050610b4a816108bf565b92915050565b600060208284031215610b6657610b65610888565b5b6000610b7484828501610b3b565b91505092915050565b600082825260208201905092915050565b7f596f7520646f6e2774206f776e2074686973206265616e210000000000000000600082015250565b6000610bc4601883610b7d565b9150610bcf82610b8e565b602082019050919050565b60006020820190508181036000830152610bf381610bb7565b9050919050565b7f5468652063757272656e742067726f77696e67207068617365206f6620796f7560008201527f7220706c616e74206973206e6f742066696e6973686564207965742100000000602082015250565b6000610c56603c83610b7d565b9150610c6182610bfa565b604082019050919050565b60006020820190508181036000830152610c8581610c49565b9050919050565b7f596f757220706c616e7420616c72656164792072656163686564206d6178696d60008201527f756d2067726f7774682100000000000000000000000000000000000000000000602082015250565b6000610ce8602a83610b7d565b9150610cf382610c8c565b604082019050919050565b60006020820190508181036000830152610d1781610cdb565b9050919050565b7f4f776e61626c653a206e6577206f776e657220697320746865207a65726f206160008201527f6464726573730000000000000000000000000000000000000000000000000000602082015250565b6000610d7a602683610b7d565b9150610d8582610d1e565b604082019050919050565b60006020820190508181036000830152610da981610d6d565b9050919050565b7f4f776e61626c653a2063616c6c6572206973206e6f7420746865206f776e6572600082015250565b6000610de6602083610b7d565b9150610df182610db0565b602082019050919050565b60006020820190508181036000830152610e1581610dd9565b905091905056fea264697066735822122097d73a806987c62da3fabae9b37ebdc7e65820d11f5c2ae6247904262947e51c64736f6c634300080d0033",
  "linkReferences": {},
  "deployedLinkReferences": {}
}